{
  "contractName": "KycContract",
  "abi": [
    {
      "inputs": [],
      "name": "_owner",
      "outputs": [
        {
          "internalType": "address",
          "name": "",
          "type": "address"
        }
      ],
      "stateMutability": "view",
      "type": "function",
      "constant": true
    },
    {
      "inputs": [],
      "name": "isOwner",
      "outputs": [
        {
          "internalType": "bool",
          "name": "",
          "type": "bool"
        }
      ],
      "stateMutability": "view",
      "type": "function",
      "constant": true
    },
    {
      "inputs": [
        {
          "internalType": "address",
          "name": "_address",
          "type": "address"
        }
      ],
      "name": "setKYCCompleted",
      "outputs": [],
      "stateMutability": "nonpayable",
      "type": "function"
    },
    {
      "inputs": [
        {
          "internalType": "address",
          "name": "_address",
          "type": "address"
        }
      ],
      "name": "setKYCRevoked",
      "outputs": [],
      "stateMutability": "nonpayable",
      "type": "function"
    },
    {
      "inputs": [
        {
          "internalType": "address",
          "name": "_address",
          "type": "address"
        }
      ],
      "name": "KYCCompleted",
      "outputs": [
        {
          "internalType": "bool",
          "name": "",
          "type": "bool"
        }
      ],
      "stateMutability": "view",
      "type": "function",
      "constant": true
    }
  ],
  "bytecode": "0x608060405234801561001057600080fd5b50336000806101000a81548173ffffffffffffffffffffffffffffffffffffffff021916908373ffffffffffffffffffffffffffffffffffffffff1602179055506104b7806100606000396000f3fe608060405234801561001057600080fd5b50600436106100575760003560e01c8063215b16381461005c5780638f32d59b14610078578063b2bdfa7b14610096578063eeed69d9146100b4578063f90f6f88146100d0575b600080fd5b61007660048036038101906100719190610377565b610100565b005b6100806101a2565b60405161008d91906103bf565b60405180910390f35b61009e6101f9565b6040516100ab91906103e9565b60405180910390f35b6100ce60048036038101906100c99190610377565b61021d565b005b6100ea60048036038101906100e59190610377565b6102be565b6040516100f791906103bf565b60405180910390f35b6101086101a2565b610147576040517f08c379a000000000000000000000000000000000000000000000000000000000815260040161013e90610461565b60405180910390fd5b6000600160008373ffffffffffffffffffffffffffffffffffffffff1673ffffffffffffffffffffffffffffffffffffffff16815260200190815260200160002060006101000a81548160ff02191690831515021790555050565b60008060009054906101000a900473ffffffffffffffffffffffffffffffffffffffff1673ffffffffffffffffffffffffffffffffffffffff163373ffffffffffffffffffffffffffffffffffffffff1614905090565b60008054906101000a900473ffffffffffffffffffffffffffffffffffffffff1681565b6102256101a2565b610264576040517f08c379a000000000000000000000000000000000000000000000000000000000815260040161025b90610461565b60405180910390fd5b60018060008373ffffffffffffffffffffffffffffffffffffffff1673ffffffffffffffffffffffffffffffffffffffff16815260200190815260200160002060006101000a81548160ff02191690831515021790555050565b6000600160008373ffffffffffffffffffffffffffffffffffffffff1673ffffffffffffffffffffffffffffffffffffffff16815260200190815260200160002060009054906101000a900460ff169050919050565b600080fd5b600073ffffffffffffffffffffffffffffffffffffffff82169050919050565b600061034482610319565b9050919050565b61035481610339565b811461035f57600080fd5b50565b6000813590506103718161034b565b92915050565b60006020828403121561038d5761038c610314565b5b600061039b84828501610362565b91505092915050565b60008115159050919050565b6103b9816103a4565b82525050565b60006020820190506103d460008301846103b0565b92915050565b6103e381610339565b82525050565b60006020820190506103fe60008301846103da565b92915050565b600082825260208201905092915050565b7f43616c6c6572206973206e6f7420746865206f776e6572000000000000000000600082015250565b600061044b601783610404565b915061045682610415565b602082019050919050565b6000602082019050818103600083015261047a8161043e565b905091905056fea26469706673582212201acc0df99055b3aae939580bf7d09a8042496f16729c4ce14b6abb901f401dc864736f6c634300080e0033",
  "immutableReferences": {},
  "source": "//SPDX-License-Identifier: MIT\r\n\r\npragma solidity ^0.8.0;\r\n\r\nimport \"./Ownable.sol\";\r\n\r\ncontract KycContract is Ownable {\r\n    mapping(address => bool) allowed;\r\n\r\n    function setKYCCompleted(address _address) public onlyOwner {\r\n        allowed[_address] = true;\r\n    }\r\n\r\n    function setKYCRevoked(address _address) public onlyOwner {\r\n        allowed[_address] = false;\r\n    }\r\n\r\n    function KYCCompleted(address _address) public view returns (bool) {\r\n        return allowed[_address];\r\n    }\r\n}\r\n",
  "sourcePath": "D:\\GitHub\\InProgress1\\contracts\\KycContract.sol",
  "compiler": {
    "name": "solc",
    "version": "0.8.14+commit.80d49f37.Emscripten.clang"
  },
  "schemaVersion": "3.4.7",
  "updatedAt": "2022-06-24T11:10:49.496Z",
  "networkType": "ethereum",
  "devdoc": {
    "kind": "dev",
    "methods": {},
    "version": 1
  },
  "userdoc": {
    "kind": "user",
    "methods": {},
    "version": 1
  }
}